:100000000C9434000C9451000C9451000C94510049
:100010000C9451000C9451000C9451000C9451001C
:100020000C9451000C9451000C9451000C9451000C
:100030000C9451000C9451000C9451000C945100FC
:100040000C9451000C9451000C9451000C945100EC
:100050000C9451000C9451000C9451000C945100DC
:100060000C9451000C94510011241FBECFEFD8E026
:10007000DEBFCDBF11E0A0E0B1E0E8E2F2E002C0F7
:1000800005900D92A431B107D9F721E0A4E1B1E0C8
:1000900001C01D92A631B207E1F70E94ED000C9459
:1000A00012010C940000CF93DF93CDB7DEB76497B5
:1000B0000FB6F894DEBF0FBECDBF84E1E0E0F1E003
:1000C000DE01119601900D928A95E1F7809114015D
:1000D00090911501099769F42FE38DE093E0215089
:1000E00080409040E1F700C000001092150110928E
:1000F00014012FE986E891E0215080409040E1F71B
:1001000000C00000489B06C0499B04C04A9B02C037
:100110004B9943C0489B0FC09BB18BB18061981332
:100120000AC08091140190911501019690931501D8
:100130008093140132C0499B0FC09BB18BB1806288
:1001400098130AC080911401909115010196909323
:1001500015018093140121C04A9B0FC09BB18BB144
:10016000806498130AC08091140190911501019642
:10017000909315018093140110C04B9B0EC09BB14E
:100180008BB18068981309C080911401909115017A
:1001900001969093150180931401E0911401F09160
:1001A0001501EE0FFF1F81E090E08C0F9D1FE80FFF
:1001B000F91F808185B99FE926E881E091502040B0
:1001C0008040E1F700C0000064960FB6F894DEBFEF
:1001D0000FBECDBFDF91CF9108958FEF84B980EF2F
:1001E0008AB98BB180618BB90E9453008BB18F7E2D
:1001F0008BB98BB180628BB90E9453008BB18F7D1C
:100200008BB98BB180648BB90E9453008BB18F7B0B
:100210008BB98BB180688BB90E9453008BB18F77FB
:080220008BB9DFCFF894FFCF8A
:100228004000790024003000190012000200780014
:0402380000001000B2
:00000001FF
